{
  "contractName": "Ballot",
  "abi": [
    {
      "inputs": [
        {
          "internalType": "string",
          "name": "_chairMan",
          "type": "string"
        },
        {
          "internalType": "string",
          "name": "_election",
          "type": "string"
        }
      ],
      "stateMutability": "nonpayable",
      "type": "constructor"
    },
    {
      "anonymous": false,
      "inputs": [
        {
          "indexed": false,
          "internalType": "address",
          "name": "account",
          "type": "address"
        }
      ],
      "name": "Paused",
      "type": "event"
    },
    {
      "anonymous": false,
      "inputs": [
        {
          "indexed": false,
          "internalType": "address",
          "name": "account",
          "type": "address"
        }
      ],
      "name": "Unpaused",
      "type": "event"
    },
    {
      "inputs": [],
      "name": "ballotChairman",
      "outputs": [
        {
          "internalType": "address",
          "name": "",
          "type": "address"
        }
      ],
      "stateMutability": "view",
      "type": "function"
    },
    {
      "inputs": [],
      "name": "chairMan",
      "outputs": [
        {
          "internalType": "string",
          "name": "",
          "type": "string"
        }
      ],
      "stateMutability": "view",
      "type": "function"
    },
    {
      "inputs": [],
      "name": "election",
      "outputs": [
        {
          "internalType": "string",
          "name": "",
          "type": "string"
        }
      ],
      "stateMutability": "view",
      "type": "function"
    },
    {
      "inputs": [],
      "name": "finalResult",
      "outputs": [
        {
          "internalType": "uint256",
          "name": "",
          "type": "uint256"
        }
      ],
      "stateMutability": "view",
      "type": "function"
    },
    {
      "inputs": [],
      "name": "paused",
      "outputs": [
        {
          "internalType": "bool",
          "name": "",
          "type": "bool"
        }
      ],
      "stateMutability": "view",
      "type": "function"
    },
    {
      "inputs": [],
      "name": "state",
      "outputs": [
        {
          "internalType": "enum Ballot.State",
          "name": "",
          "type": "uint8"
        }
      ],
      "stateMutability": "view",
      "type": "function"
    },
    {
      "inputs": [],
      "name": "totalVote",
      "outputs": [
        {
          "internalType": "uint256",
          "name": "",
          "type": "uint256"
        }
      ],
      "stateMutability": "view",
      "type": "function"
    },
    {
      "inputs": [],
      "name": "totalVoter",
      "outputs": [
        {
          "internalType": "uint256",
          "name": "",
          "type": "uint256"
        }
      ],
      "stateMutability": "view",
      "type": "function"
    },
    {
      "inputs": [
        {
          "internalType": "address",
          "name": "",
          "type": "address"
        }
      ],
      "name": "voterStakeholder",
      "outputs": [
        {
          "internalType": "string",
          "name": "voterName",
          "type": "string"
        },
        {
          "internalType": "bool",
          "name": "voted",
          "type": "bool"
        }
      ],
      "stateMutability": "view",
      "type": "function"
    },
    {
      "inputs": [
        {
          "internalType": "address",
          "name": "_voterAddress",
          "type": "address"
        },
        {
          "internalType": "string",
          "name": "_voterName",
          "type": "string"
        }
      ],
      "name": "addVoter",
      "outputs": [],
      "stateMutability": "nonpayable",
      "type": "function"
    },
    {
      "inputs": [],
      "name": "startVote",
      "outputs": [],
      "stateMutability": "nonpayable",
      "type": "function"
    },
    {
      "inputs": [
        {
          "internalType": "bool",
          "name": "_choice",
          "type": "bool"
        }
      ],
      "name": "doVote",
      "outputs": [
        {
          "internalType": "bool",
          "name": "voted",
          "type": "bool"
        }
      ],
      "stateMutability": "nonpayable",
      "type": "function"
    },
    {
      "inputs": [],
      "name": "endVote",
      "outputs": [],
      "stateMutability": "nonpayable",
      "type": "function"
    }
  ],
  "bytecode": "0x608060405260006001556000600255600060035560006004553480156200002557600080fd5b50604051620015033803806200150383398181016040528101906200004b91906200035b565b60008060006101000a81548160ff02191690831515021790555033600560006101000a81548173ffffffffffffffffffffffffffffffffffffffff021916908373ffffffffffffffffffffffffffffffffffffffff1602179055508160069080519060200190620000be9291906200010e565b508060079080519060200190620000d79291906200010e565b506000600a60006101000a81548160ff02191690836002811115620001015762000100620003e0565b5b0217905550505062000473565b8280546200011c906200043e565b90600052602060002090601f0160209004810192826200014057600085556200018c565b82601f106200015b57805160ff19168380011785556200018c565b828001600101855582156200018c579182015b828111156200018b5782518255916020019190600101906200016e565b5b5090506200019b91906200019f565b5090565b5b80821115620001ba576000816000905550600101620001a0565b5090565b6000604051905090565b600080fd5b600080fd5b600080fd5b600080fd5b6000601f19601f8301169050919050565b7f4e487b7100000000000000000000000000000000000000000000000000000000600052604160045260246000fd5b6200022782620001dc565b810181811067ffffffffffffffff82111715620002495762000248620001ed565b5b80604052505050565b60006200025e620001be565b90506200026c82826200021c565b919050565b600067ffffffffffffffff8211156200028f576200028e620001ed565b5b6200029a82620001dc565b9050602081019050919050565b60005b83811015620002c7578082015181840152602081019050620002aa565b83811115620002d7576000848401525b50505050565b6000620002f4620002ee8462000271565b62000252565b905082815260208101848484011115620003135762000312620001d7565b5b62000320848285620002a7565b509392505050565b600082601f83011262000340576200033f620001d2565b5b815162000352848260208601620002dd565b91505092915050565b60008060408385031215620003755762000374620001c8565b5b600083015167ffffffffffffffff811115620003965762000395620001cd565b5b620003a48582860162000328565b925050602083015167ffffffffffffffff811115620003c857620003c7620001cd565b5b620003d68582860162000328565b9150509250929050565b7f4e487b7100000000000000000000000000000000000000000000000000000000600052602160045260246000fd5b7f4e487b7100000000000000000000000000000000000000000000000000000000600052602260045260246000fd5b600060028204905060018216806200045757607f821691505b6020821081036200046d576200046c6200040f565b5b50919050565b61108080620004836000396000f3fe608060405234801561001057600080fd5b50600436106100cf5760003560e01c8063c19d93fb1161008c578063f053e3bf11610066578063f053e3bf146101dd578063f0b77828146101fb578063f1cea4c714610219578063f3a8286f14610237576100cf565b8063c19d93fb14610172578063d9e95a9814610190578063e5318424146101ac576100cf565b80634b1d3ede146100d45780634c0a6af0146100f25780635c975abb146100fc5780636332abc91461011a57806387caea7814610138578063b922394614610168575b600080fd5b6100dc610255565b6040516100e99190610b72565b60405180910390f35b6100fa6102e3565b005b6101046103ac565b6040516101119190610baf565b60405180910390f35b6101226103c2565b60405161012f9190610be3565b60405180910390f35b610152600480360381019061014d9190610c3e565b6103c8565b60405161015f9190610baf565b60405180910390f35b61017061062f565b005b61017a610701565b6040516101879190610ce2565b60405180910390f35b6101aa60048036038101906101a59190610e90565b610714565b005b6101c660048036038101906101c19190610eec565b61086f565b6040516101d4929190610f19565b60405180910390f35b6101e5610928565b6040516101f29190610f58565b60405180910390f35b61020361094e565b6040516102109190610b72565b60405180910390f35b6102216109dc565b60405161022e9190610be3565b60405180910390f35b61023f6109e2565b60405161024c9190610be3565b60405180910390f35b6007805461026290610fa2565b80601f016020809104026020016040519081016040528092919081815260200182805461028e90610fa2565b80156102db5780601f106102b0576101008083540402835291602001916102db565b820191906000526020600020905b8154815290600101906020018083116102be57829003601f168201915b505050505081565b60008060028111156102f8576102f7610c6b565b5b600a60009054906101000a900460ff16600281111561031a57610319610c6b565b5b1461032457600080fd5b600560009054906101000a900473ffffffffffffffffffffffffffffffffffffffff1673ffffffffffffffffffffffffffffffffffffffff163373ffffffffffffffffffffffffffffffffffffffff161461037e57600080fd5b6001600a60006101000a81548160ff021916908360028111156103a4576103a3610c6b565b5b021790555050565b60008060009054906101000a900460ff16905090565b60035481565b600060018060028111156103df576103de610c6b565b5b600a60009054906101000a900460ff16600281111561040157610400610c6b565b5b1461040b57600080fd5b600080600960003373ffffffffffffffffffffffffffffffffffffffff1673ffffffffffffffffffffffffffffffffffffffff168152602001908152602001600020600001805461045b90610fa2565b9050141580156104b85750600960003373ffffffffffffffffffffffffffffffffffffffff1673ffffffffffffffffffffffffffffffffffffffff16815260200190815260200160002060010160009054906101000a900460ff16155b15610625576001600960003373ffffffffffffffffffffffffffffffffffffffff1673ffffffffffffffffffffffffffffffffffffffff16815260200190815260200160002060010160006101000a81548160ff0219169083151502179055506105206109e8565b33816000019073ffffffffffffffffffffffffffffffffffffffff16908173ffffffffffffffffffffffffffffffffffffffff1681525050848160200190151590811515815250508415610587576001600081548092919061058190611002565b91905055505b8060086000600454815260200190815260200160002060008201518160000160006101000a81548173ffffffffffffffffffffffffffffffffffffffff021916908373ffffffffffffffffffffffffffffffffffffffff16021790555060208201518160000160146101000a81548160ff0219169083151502179055509050506004600081548092919061061a90611002565b919050555060019150505b8092505050919050565b600180600281111561064457610643610c6b565b5b600a60009054906101000a900460ff16600281111561066657610665610c6b565b5b1461067057600080fd5b600560009054906101000a900473ffffffffffffffffffffffffffffffffffffffff1673ffffffffffffffffffffffffffffffffffffffff163373ffffffffffffffffffffffffffffffffffffffff16146106ca57600080fd5b6002600a60006101000a81548160ff021916908360028111156106f0576106ef610c6b565b5b021790555060015460028190555050565b600a60009054906101000a900460ff1681565b600080600281111561072957610728610c6b565b5b600a60009054906101000a900460ff16600281111561074b5761074a610c6b565b5b1461075557600080fd5b600560009054906101000a900473ffffffffffffffffffffffffffffffffffffffff1673ffffffffffffffffffffffffffffffffffffffff163373ffffffffffffffffffffffffffffffffffffffff16146107af57600080fd5b6107b7610a1a565b828160000181905250600081602001901515908115158152505080600960008673ffffffffffffffffffffffffffffffffffffffff1673ffffffffffffffffffffffffffffffffffffffff168152602001908152602001600020600082015181600001908051906020019061082d929190610a36565b5060208201518160010160006101000a81548160ff0219169083151502179055509050506003600081548092919061086490611002565b919050555050505050565b600960205280600052604060002060009150905080600001805461089290610fa2565b80601f01602080910402602001604051908101604052809291908181526020018280546108be90610fa2565b801561090b5780601f106108e05761010080835404028352916020019161090b565b820191906000526020600020905b8154815290600101906020018083116108ee57829003601f168201915b5050505050908060010160009054906101000a900460ff16905082565b600560009054906101000a900473ffffffffffffffffffffffffffffffffffffffff1681565b6006805461095b90610fa2565b80601f016020809104026020016040519081016040528092919081815260200182805461098790610fa2565b80156109d45780601f106109a9576101008083540402835291602001916109d4565b820191906000526020600020905b8154815290600101906020018083116109b757829003601f168201915b505050505081565b60045481565b60025481565b6040518060400160405280600073ffffffffffffffffffffffffffffffffffffffff1681526020016000151581525090565b6040518060400160405280606081526020016000151581525090565b828054610a4290610fa2565b90600052602060002090601f016020900481019282610a645760008555610aab565b82601f10610a7d57805160ff1916838001178555610aab565b82800160010185558215610aab579182015b82811115610aaa578251825591602001919060010190610a8f565b5b509050610ab89190610abc565b5090565b5b80821115610ad5576000816000905550600101610abd565b5090565b600081519050919050565b600082825260208201905092915050565b60005b83811015610b13578082015181840152602081019050610af8565b83811115610b22576000848401525b50505050565b6000601f19601f8301169050919050565b6000610b4482610ad9565b610b4e8185610ae4565b9350610b5e818560208601610af5565b610b6781610b28565b840191505092915050565b60006020820190508181036000830152610b8c8184610b39565b905092915050565b60008115159050919050565b610ba981610b94565b82525050565b6000602082019050610bc46000830184610ba0565b92915050565b6000819050919050565b610bdd81610bca565b82525050565b6000602082019050610bf86000830184610bd4565b92915050565b6000604051905090565b600080fd5b600080fd5b610c1b81610b94565b8114610c2657600080fd5b50565b600081359050610c3881610c12565b92915050565b600060208284031215610c5457610c53610c08565b5b6000610c6284828501610c29565b91505092915050565b7f4e487b7100000000000000000000000000000000000000000000000000000000600052602160045260246000fd5b60038110610cab57610caa610c6b565b5b50565b6000819050610cbc82610c9a565b919050565b6000610ccc82610cae565b9050919050565b610cdc81610cc1565b82525050565b6000602082019050610cf76000830184610cd3565b92915050565b600073ffffffffffffffffffffffffffffffffffffffff82169050919050565b6000610d2882610cfd565b9050919050565b610d3881610d1d565b8114610d4357600080fd5b50565b600081359050610d5581610d2f565b92915050565b600080fd5b600080fd5b7f4e487b7100000000000000000000000000000000000000000000000000000000600052604160045260246000fd5b610d9d82610b28565b810181811067ffffffffffffffff82111715610dbc57610dbb610d65565b5b80604052505050565b6000610dcf610bfe565b9050610ddb8282610d94565b919050565b600067ffffffffffffffff821115610dfb57610dfa610d65565b5b610e0482610b28565b9050602081019050919050565b82818337600083830152505050565b6000610e33610e2e84610de0565b610dc5565b905082815260208101848484011115610e4f57610e4e610d60565b5b610e5a848285610e11565b509392505050565b600082601f830112610e7757610e76610d5b565b5b8135610e87848260208601610e20565b91505092915050565b60008060408385031215610ea757610ea6610c08565b5b6000610eb585828601610d46565b925050602083013567ffffffffffffffff811115610ed657610ed5610c0d565b5b610ee285828601610e62565b9150509250929050565b600060208284031215610f0257610f01610c08565b5b6000610f1084828501610d46565b91505092915050565b60006040820190508181036000830152610f338185610b39565b9050610f426020830184610ba0565b9392505050565b610f5281610d1d565b82525050565b6000602082019050610f6d6000830184610f49565b92915050565b7f4e487b7100000000000000000000000000000000000000000000000000000000600052602260045260246000fd5b60006002820490506001821680610fba57607f821691505b602082108103610fcd57610fcc610f73565b5b50919050565b7f4e487b7100000000000000000000000000000000000000000000000000000000600052601160045260246000fd5b600061100d82610bca565b91507fffffffffffffffffffffffffffffffffffffffffffffffffffffffffffffffff820361103f5761103e610fd3565b5b60018201905091905056fea2646970667358221220ab17fc21e63e48c101a2691058476ab2f3a740420c2a1757f8479e6f3686bcda64736f6c634300080d0033",
  "immutableReferences": {},
  "source": "// SPDX-License-Identifier: MIT\r\npragma solidity ^0.8.0;\r\n\r\n\r\nimport \"@openzeppelin/contracts/security/Pausable.sol\";\r\n\r\ncontract Ballot is Pausable {\r\n    // Variables\r\n    struct vote{\r\n        address voterAddress;\r\n        bool choice;\r\n    }\r\n    struct voter{\r\n        string voterName;\r\n        bool voted;\r\n    }\r\n\r\n    uint private countResult = 0;\r\n    uint public finalResult = 0;\r\n    uint public totalVoter = 0;\r\n    uint public totalVote = 0;\r\n\r\n    address public ballotChairman;\r\n    string public chairMan;\r\n    string public election;\r\n\r\n    mapping(uint => vote) private votes;\r\n    mapping(address =>voter) public voterStakeholder;\r\n\r\n    enum State { Created, Voting, Ended }\r\n    State public state;\r\n\r\n    // Modifiers\r\n    modifier condition(bool _condition) {\r\n        require(_condition);\r\n        _;\r\n    }\r\n    modifier onlyChairman() {\r\n        require(msg.sender == ballotChairman);\r\n        _;\r\n    }\r\n    modifier inState (State _state) {\r\n        require(state == _state);\r\n        _;\r\n    }\r\n    \r\n    constructor (\r\n        string memory _chairMan,\r\n        string memory _election\r\n    )\r\n    {\r\n        ballotChairman = msg.sender;\r\n        chairMan = _chairMan;\r\n        election = _election;\r\n\r\n        state = State.Created;\r\n    }\r\n        // functions\r\n    function addVoter(address _voterAddress, string memory _voterName)\r\n        public\r\n        inState(State.Created)\r\n        onlyChairman\r\n    {\r\n        voter memory v;\r\n        v.voterName = _voterName;\r\n        v.voted = false;\r\n        voterStakeholder[_voterAddress] = v;\r\n        totalVoter++;\r\n    }\r\n    function startVote()\r\n        public\r\n        inState(State.Created)\r\n        onlyChairman\r\n    {\r\n        state = State.Voting;\r\n    }\r\n    function doVote(bool _choice)\r\n        public\r\n        inState(State.Voting)\r\n        returns (bool voted)\r\n    {\r\n        bool found = false;\r\n\r\n    if  (bytes(voterStakeholder[msg.sender].voterName).length !=0\r\n    &&  !voterStakeholder[msg.sender].voted){\r\n        voterStakeholder[msg.sender].voted = true;\r\n        vote memory v;\r\n        v.voterAddress = msg.sender;\r\n        v.choice = _choice;\r\n        if(_choice) {\r\n            countResult++;\r\n        }\r\n        votes[totalVote] = v;\r\n        totalVote++;\r\n        found = true;\r\n    }\r\n    return found;\r\n    }\r\n    function endVote() \r\n        public inState(State.Voting)\r\n        onlyChairman\r\n    {\r\n        state = State.Ended;\r\n        finalResult = countResult;\r\n    }\r\n}",
  "sourcePath": "/data/data/com.termux/files/home/truff/contracts/Ballot.sol",
  "compiler": {
    "name": "solc",
    "version": "0.8.13+commit.abaa5c0e.Emscripten.clang"
  },
  "schemaVersion": "3.4.7",
  "updatedAt": "2022-04-22T01:55:43.165Z",
  "devdoc": {
    "kind": "dev",
    "methods": {
      "paused()": {
        "details": "Returns true if the contract is paused, and false otherwise."
      }
    },
    "version": 1
  },
  "userdoc": {
    "kind": "user",
    "methods": {},
    "version": 1
  }
}